:0E000000759001AEB0BE010312001DBE0303D9
:0F000E00120030BE0703120059BE0FE912008224
:0F001D00759001E5907F0823F59078081200D5C3
:10002C00DFF680D07590017590017590021200D5A5
:0F003C007590047590081200D57590107590207E
:0E004B001200D57590407590801200D580A7E8
:0F0059007590011200D57590001200D5759001B9
:0F0068001200D57590041200D57590101200D5B6
:0E0077007590201200D5759040010075900123
:0F0085001200D57590001200D57590091200D5A4
:0F0094007590001200D57590011200D57590007F
:0F00A3001200D57590811200D57590001200D50E
:0F00B2007590011200D57590001200D5759090D1
:0F00C1001200D57590001200D57590991200D5D8
:0F00D0007590000100780879FA7AFADAFED9FA09
:0300DF00D8F6222E
:00000001FF
