:0600000002001602006779
:1000130002008675A88575B804C2B1C2B075903860
:0F0023001200BE7590381200BE7590381200BEE4
:0F00320075900F1200BE7590011200BE759006FA
:0F0041001200BED2B0C2B07590011200BED2B094
:0F0050009000A5740093F590A31200CFB400F4B4
:10005F00C2B01200CF020046C2B07590011200BEAE
:0E006F00D2B09000AE740093F590A31200BEC4
:0E007D00B400F4C2B01200CF32C2B0759001D0
:0E008B001200BED2B09000B8740093F590A39E
:100099001200BEB400F4C2B01200CF323231313096
:1000A900303238332E526F6472696775657A2E471C
:0F00B9006F6D657A2ED2B17AFA7BFADBFEDAFA36
:0F00C800C2B17AFA7BFA22D2B179087AFA7BFABE
:0F00D700DBFEDAFAD9F679087AFA7BFAC2B1229F
:00000001FF
