:10000000C2B1C2B07590381200777590381200777F
:0F00100075903812007775900F12007775900178
:10001F00120077759006120077D2B090005A7400D4
:0F002F0093F590A3120077B400F4C2B0120077DB
:10003E00C2B0759000120077D2B090006474009335
:10004E00F590A3120077B400F402007446414252B8
:10005E00495A494F0020524F4452494755455A205C
:0F006E00474F4D455A00020074D2B179017AFA1A
:07007D00DAFED9FAC2B1223C
:00000001FF
